:020000001628C0
:0E0006008312031321088A00200882000800DC
:1000140003208A110A128000840AA00A0319A10A83
:08002400F003031D0A28080087
:10002C008316031386018312860101308600033088
:10003C00FB000830FC007730FD00FD0B2328FC0B87
:10004C002328FB0B2328023086000330FB000830EA
:10005C00FC007730FD00FD0B3128FC0B3128FB0B2D
:10006C003128043086000330FB000830FC00773068
:10007C00FD00FD0B3F28FC0B3F28FB0B3F280830F5
:10008C0086000330FB000830FC007730FD00FD0BD0
:0E009C004D28FC0B4D28FB0B4D281B2854282B
:02400E000A2F77
:00000001FF
